:100000000C94B20D0C94E30D0C94E30D0C94E30DE1
:100010000C94E30D0C94E30D0C94E30D0C94E30DA0
:100020000C94E30D0C94E30D0C94E30D0C94E30D90
:100030000C94E30D0C94E30D0C94E30D0C94E30D80
:100040000C94E30D0C940D760C94E30D0C94E30DDD
:100050000C94E30D0C94E30D0C9468610C943C60DB
:100060000C94E30D0C944F410C9426410C94E30D39
:100070000C94E30D0C94E30D0C94E30D0C94E30D40
:100080000C94E30D0C94E30D0C94E30D0C94E30D30
:100090000C94E30D0C94E30D0C94E30D0C94E30D20
:1000A0000C94E30D0C94E30D0C94E30D0C94E30D10
:1000B0000C94E30D0C94E30D0C94E30D0C94E30D00
:1000C0000C94E30D0C94E30D0C94E30D0C94FD40A3
:1000D0000C94D4400C94E30D0C94E30D0C94E30DBC
:1000E0000C94E30DB95EBC5EAB5EAF5EB55EF35ED5
:1000F000C05EC45ECA5ECE5ED25ED85EDC5EE05E8E
:10010000F35EE65EEA5EEE5E585F5D5F625F6C5FC7
:10011000765FEF5F805F885F905F9A5FA45FAE5FFE
:10012000BD5FC75FEF5FD15FDB5FE55FBB61C8614C
:10013000E761F56110621362166219621C621F6248
:10014000226225622F62084AD73B3BCE016E84BCF7
:10015000BFFDC12F3D6C74319ABD56833DDA3D0021
:10016000C77F11BED9E4BB4C3E916BAAAABE00006A
:1001700000803F05A84CCDB2D44EB93836A9020C48
:1001800050B9918688083CA6AAAA2ABE0000008021
:100190003F00434F4D4D554E49434154494F4E004A
:1001A00044525952554E004552524F525300494EF7
:1001B000464F004543484F0020746F6F206C6F6EB0
:1001C0006720657874727573696F6E2070726576DA
:1001D000656E7465640A0020636F6C6420657874D2
:1001E000727573696F6E2070726576656E74656482
:1001F0000A0047322F4733206261642070617261C8
:100200006D65746572730A00456E642066696C657D
:10021000206C6973740A00426567696E2066696CB8
:1002200065206C6973740A005344207072696E749F
:10023000696E67206279746520004E6F74205344A4
:10024000207072696E74696E670A0046696C652079
:1002500064656C657465643A0044656C6574696FC7
:100260006E206661696C65642C2046696C653A2075
:10027000006F70656E206661696C65642C2046694C
:100280006C653A20002569730025696D2025697326
:10029000002569682025696D20256973002569643A
:1002A000202569682025696D2025697300256979F5
:1002B00020256964202569682025696D20256973DA
:1002C000005072696E742074696D653A2000507236
:1002D0006F7465637465642050696E0A00B301AE83
:1002E00001A701A00192016F66660044454255478F
:1002F0003A004B494C4C45442E20004D31313320BF
:1003000053006F6B003F0A0020573A003F0A00205D
:10031000573A004649524D574152455F4E414D456F
:100320003A4D61726C696E20312E312E302D524360
:100330003820284769746875622920534F55524305
:10034000455F434F44455F55524C3A68747470732F
:100350003A2F2F6769746875622E636F6D2F4D6138
:10036000726C696E4669726D776172652F4D61724C
:100370006C696E2050524F544F434F4C5F5645525C
:1003800053494F4E3A312E30204D414348494E4556
:100390005F545950453A3344205072696E74657207
:1003A0002045585452554445525F434F554E543A98
:1003B0003120555549443A63656465326132662D92
:1003C000343161322D343734382D396231322D6376
:1003D00035356336326633363766660A007A5F6DC6
:1003E000696E3A2000795F6D696E3A2000785F6D22
:1003F000696E3A20005265706F7274696E6720658D
:100400006E6473746F70207374617475730A005333
:10041000657474696E672054726176656C204163FF
:1004200063656C65726174696F6E3A200053657420
:1004300074696E67205265747261637420416363EE
:10044000656C65726174696F6E3A200053657474EF
:10045000696E67205072696E7420416363656C65D4
:10046000726174696F6E3A200053657474696E67C7
:10047000205072696E7420616E64205472617665DA
:100480006C20416363656C65726174696F6E3A20BC
:1004900000205A00205900580020204D61783A2051
:1004A00000205A00205900580020204D696E3A2043
:1004B000004F6E20004F666600536F667420656EB5
:1004C0006473746F70733A200020643A0020693AB4
:1004D0000020703A0043290A0061626C656420289C
:1004E0006D696E2074656D702000436F6C642065CB
:1004F0007874727564657320617265200023646589
:1005000066696E65202044454641554C545F4B64F6
:10051000200023646566696E652020444546415588
:100520004C545F4B69200023646566696E6520202A
:1005300044454641554C545F4B702000504944207F
:100540004175746F74756E652066696E6973686550
:1005500064212050757420746865206C6173742068
:100560004B702C204B6920616E64204B6420636FBC
:100570006E7374616E74732066726F6D2062656C49
:100580006F7720696E746F20436F6E66696775724E
:100590006174696F6E2E680A005049442041757479
:1005A0006F74756E65206661696C6564212074697D
:1005B0006D656F75740A00504944204175746F74FD
:1005C000756E65206661696C6564212054656D7087
:1005D0006572617475726520746F6F2068696768F1
:1005E0000A00204B643A2000204B693A2000204B3F
:1005F000703A20000A20436C61737369632050498C
:1006000044200A002054753A2000204B753A2000FF
:10061000206D61783A2000206D696E3A20002064D8
:100620003A200020626961733A2000546F6F20669F
:1006300061722066726F6D207265666572656E63A9
:100640006520706F696E740A004163746976652075
:1006500045787472756465723A2000556E6B6E6FE2
:10066000776E20636F6D6D616E643A2022004732B1
:100670003800473238205A3000473238205930008D
:10068000473238205830004D383400473930004761
:100690003120452D3130204636300047312045315C
:1006A0003020463630004731205A2D313020463335
:1006B000303030004731205A31302046333030302E
:1006C00000473238205A3000473120592D31302030
:1006D00046333030300047312059313020463330F6
:1006E00030300047323820593000473120582D3102
:1006F00030204633303030004731205831302046EA
:10070000333030300047323820583000473931001C
:100710004731205A333020463630303000473238A7
:10072000205A300047312058313030205931303094
:10073000205A313020463630303000473238205A87
:1007400030004731205833302059313730205A316A
:100750003020463630303000473238205A3000479B
:1007600031205831373020593330205A313020462B
:100770003630303000473238205A30004731205868
:100780003137302059313730205A31302046363019
:10079000303000473238205A30004731205833304B
:1007A00020593330205A313020463630303000471F
:1007B0003238004739300047393000473931004777
:1007C000393100473930004731205A313020463323
:1007D000303030004739310047312045302E352048
:1007E00046363000473120452D302E3520463630F4
:1007F00000627573793A2070617573656420666F65
:100800007220696E7075740A00627573793A20708F
:10081000617573656420666F7220757365720A0076
:10082000627573793A2070726F63657373696E676E
:100830000A004B494C4C45442E20004E6F204C6919
:100840006E65204E756D62657220776974682063ED
:100850006865636B73756D2C204C617374204C69F3
:100860006E653A20004B494C4C45442E2000507296
:10087000696E7465722073746F707065642064753E
:100880006520746F206572726F72732E20466978CE
:1008900020746865206572726F7220616E642075C5
:1008A0007365204D39393920746F20726573746116
:1008B00072742E202854656D70657261747572654E
:1008C0002069732072657365742E205365742069E6
:1008D00074206166746572207265737461727469E4
:1008E0006E67290A004E6F20436865636B73756DF0
:1008F0002077697468206C696E65206E756D62651D
:10090000722C204C617374204C696E653A20006330
:100910006865636B73756D206D69736D6174636871
:100920002C204C617374204C696E653A20004C6930
:100930006E65204E756D626572206973206E6F74EE
:10094000204C617374204C696E65204E756D626534
:10095000722B312C204C617374204C696E653A20E7
:10096000004D313130004D3331004D3834205820A6
:1009700059205A20450053442072656164206572F5
:10098000726F720A00446F6E65207072696E7469CE
:100990006E672066696C650A0020496E76616C6935
:1009A00064206578747275646572200000004843A5
:1009B0000000484300003443000000000000000035
:1009C000000000002042403A0020403A00202F0062
:1009D00020423A00202F0020543A00205A3A0020AA
:1009E000593A0020436F756E7420583A2000204514
:1009F0003A00205A3A0020593A00583A00000022A2
:100A000000250028002B002E0031003400020100D8
:100A100000050108010B0100002000230026002929
:100A2000002C002F00320000010000030106010924
:100A30000105050505070508080808020202020A63
:100A40000A08080404040401010101010101010371
:100A500003030303030303040707070C0C0C0C0C2C
:100A60000C0C0C0202020206060606060606060B1F
:100A70000B0B0B0B0B0B0B01021020200808102096
:100A8000401020408002010201080402010102041A
:100A900008102040808040201008040201800402D9
:100AA0000180402010080402010804020101020430
:100AB0000810204080010204081020408000000A35
:100AC0000B02090C0D0E08070304010000000000D2
:100AD0000000000000000000000000000000000016
:100AE00000000000000000000012111000000000D3
:100AF00000000000000000000000000000000000F6
:100B00000000004B494C4C45442E2000202D20492C
:100B10006E76616C696420657874727564657220A4
:100B20006E756D62657220210A002020506C616E26
:100B30006E657242756666657242797465733A20B5
:100B4000002046726565204D656D6F72793A200010
:100B5000436F6D70696C65643A204D617920203770
:100B600020323031370A00207C20417574686F7262
:100B70003A20286E6F6E652C2064656661756C7412
:100B800020636F6E666967290A00323031362D3175
:100B9000322D30362031323A303000204C617374BF
:100BA00020557064617465643A2000312E312E3016
:100BB0002D5243380A004D61726C696E0020536FEC
:100BC0006674776172652052657365740A002057F8
:100BD00061746368646F672052657365740A0020EE
:100BE00042726F776E206F75742052657365740A58
:100BF000002045787465726E616C2052657365746F
:100C00000A00506F77657255700A007374617274D0
:100C10000A006572726F722077726974696E67205C
:100C2000746F2066696C650A00205A3A0020593AB0
:100C30000020583A00656E6473746F7073206869A1
:100C4000743A2000446F6E6520736176696E672088
:100C500066696C652E0A004D3239004572726F72FA
:100C60002077726974696E6720746F204545505211
:100C70004F4D210A00206279746573290A0053657B
:100C80007474696E67732053746F726564202800F2
:100C9000454550524F4D20636865636B73756D20F9
:100CA0006D69736D617463680A002062797465739D
:100CB000290A002073746F72656420736574746907
:100CC0006E677320726574726965766564202800AA
:100CD00048617264636F6465642044656661756C25
:100CE000742053657474696E6773204C6F6164651A
:100CF000640A0020204D3230302044300A00202089
:100D00004D3230302044002044697361626C656468
:100D10000A0046696C616D656E7420736574746950
:100D20006E67733A0020440020490020204D333084
:100D3000312050005049442073657474696E6773A4
:100D40003A0A00205A0020590020204D3230362027
:100D50005800486F6D65206F666673657420286D56
:100D60006D290A00204500205A0020590020580013
:100D700020420020540020204D32303520530041C5
:100D80006476616E636564207661726961626C6528
:100D9000733A20533D4D696E2066656564726174D7
:100DA0006520286D6D2F73292C20543D4D696E20D0
:100DB00074726176656C2066656564726174652025
:100DC000286D6D2F73292C20423D6D696E696D75FC
:100DD0006D207365676D656E742074696D6520287C
:100DE0006D73292C20583D6D6178696D756D2058A3
:100DF00059206A65726B20286D6D2F73292C202075
:100E00005A3D6D6178696D756D205A206A65726B07
:100E100020286D6D2F73292C2020453D6D61786948
:100E20006D756D2045206A65726B20286D6D2F737E
:100E3000290A0020540020520020204D3230342056
:100E40005000416363656C65726174696F6E733ADB
:100E500020503D7072696E74696E672C20523D722D
:100E600065747261637420616E6420543D747261B4
:100E700076656C0A00204500205A00205900202089
:100E80004D3230312058004D6178696D756D2041CB
:100E90006363656C65726174696F6E20286D6D2F78
:100EA0007332293A0A00204500205A0020590020B8
:100EB000204D3230332058004D6178696D756D20BA
:100EC00066656564726174657320286D6D2F732982
:100ED0003A0A00204500205A0020590020204D39B0
:100EE0003220580053746570732070657220756EDF
:100EF00069743A0A007C3C3E5E2B3D3F2F5B5D3BB4
:100F00002C2A225C0053442063617264206F6B0AB8
:100F1000006F70656E526F6F74206661696C6564F6
:100F20000A00766F6C756D652E696E697420666156
:100F3000696C65640A00534420696E6974206661B7
:100F4000696C0A004D3234004D3233202573006144
:100F500075746F25692E670057726974696E672012
:100F6000746F2066696C653A20006F70656E20664C
:100F700061696C65642C2046696C653A20006F706D
:100F8000656E206661696C65642C2046696C653A03
:100F9000200046696C652073656C65637465640A3E
:100FA000002053697A653A200046696C65206F70AD
:100FB000656E65643A20006F70656E206661696CCD
:100FC00065642C2046696C653A20002066696C6572
:100FD0003A20004E6F7720002220706F730022208D
:100FE000706172656E743A2200535542524F5554E7
:100FF000494E452043414C4C207461726765743AF8
:1010000022004B494C4C45442E2000747279696E85
:101010006720746F2063616C6C207375622D676349
:101020006F64652066696C657320776974682074E5
:101030006F6F206D616E79206C6576656C732E2004
:101040004D4158206C6576656C2069733A00457295
:10105000726F723A006265640A002C2073797374AF
:10106000656D2073746F70706564212048656174CC
:1010700065725F49443A2000544845524D414C2026
:1010800052554E4157415900546865726D616C204C
:1010900052756E61776179004572723A204D415800
:1010A00054454D5020424544004572723A204D410E
:1010B0005854454D50004D415854454D5020747280
:1010C00069676765726564004572723A204D494EE2
:1010D00054454D5020424544004572723A204D49D6
:1010E0004E54454D50004D494E54454D502074725C
:1010F000696767657265640048656174696E672039
:101100006661696C65640048656174696E67206634
:1011100061696C65640048656174696E6720666129
:10112000696C65640048656174696E672066616911
:101130006C65640000002100240027002A002D00B7
:101140003000330001010000040107010A0120748E
:101150006F6F206C6F6E6720657874727573696F3E
:101160006E2070726576656E7465640A0020636F28
:101170006C6420657874727573696F6E2070726527
:1011800076656E7465640A0024F4D43050C38E20F2
:10119000C2A24017828B7011127A910D816CD90A0C
:1011A000A861E108C7586607615143061E4B5D05FB
:1011B000C145A7041A411104093D9803713931034F
:1011C0004036DB0265339102D4305402802E1D027A
:1011D000632CEE01752AC501B028A00110278101FA
:1011E0008F2564012B244B01E0223401AC211F0127
:1011F0008D200D01801FFC00841EED00971DDF0077
:10120000B81CD200E61BC600201BBC00641AB2004A
:10121000B219A8000A19A0006A189900D117910004
:1012200040178B00B516840031167E00B315790087
:101230003A157300C7146F0058146A00EE13660065
:101240008813630025135E00C7125B006C12570001
:1012500015125400C111510070114F0021114B00A3
:10126000D61049008D10470046104400021042007D
:10127000C00F4000800F3E00420F3C00060F3B00B5
:10128000CB0E3800930E37005C0E3500270E34006D
:10129000F30D3200C10D3100900D3000600D2E00B5
:1012A000320D2D00050D2C00D90C2B00AE0C2900A1
:1012B000850C29005C0C2700350C27000E0C26003D
:1012C000E80B2400C40B2400A00B23007D0B23009B
:1012D0005A0B2100390B2100180B2000F80A1F00BF
:1012E000D90A1E00BB0A1E009D0A1D00800A1D00AF
:1012F000630A1C00470A1B002C0A1B00110A1A0073
:10130000F7091A00DD091900C4091900AB09190011
:10131000920917007B091800630917004C09160091
:1013200036091600200916000A091500F5081500EF
:10133000E0081400CC081400B8081400A408140035
:10134000900813007D0812006B0813005808120063
:101350004608120034081100230811001208110079
:1013600001081100F0071000E0071000D00710007E
:10137000C0071000B0070F00A107100091070E0072
:1013800083070F0074070F0065070E0057070E0054
:1013900049070E003B070D002E070E0020070D0029
:1013A00013070D0006070D00F9060C00ED060D00F1
:1013B000E0060C00D4060C00C8060C00BC060C00AD
:1013C000B0060C00A4060B0099060C008D060B005D
:1013D00082060B0077060B006C060B0061060A0004
:1013E00057060B004C060A0042060A0038060A009F
:1013F0002E060A0024060A001A060A001006090032
:1014000007060A00FD050900F4050900EB050900BF
:10141000E2050900D9050900D0050900C705090042
:10142000BE050900B5050800AD050800A5050900C1
:101430009C050800940508008C0508008405080038
:101440007C050800740508006C05070065050800A8
:101450005D050700560508004E0507004705070013
:101460004005080038050700310507002A05070078
:10147000230507001C050600160507000F050700D9
:101480000805060002050700FB040600F504070036
:10149000EE040600E8040600E2040700DB04060090
:1014A000D5040600CF040600C9040600C3040600E4
:1014B000BD040600B7040600B1040500AC04060034
:1014C000A6040600A00405009B0406009504050080
:1014D000900406008A0405008504050080040600C7
:1014E0007A04050075040500700405006B0405000E
:1014F00066040500610405005C040500570405004E
:10150000520405004D04050048040500430405008D
:101510003E0404003A0405003504050030040400CC
:101520002C04050027040400230405001E04040005
:101530001A04040016040500110404000D0404003C
:10154000090405000404040000040400FC03040072
:10155000F8030400F4030400F0030400EC030400A7
:10156000E8030400E4030400E0030400DC030400D7
:10157000D8030400D4030400D0030400CC03040007
:10158000C8030300C503030024F404D9201BC40CC2
:101590005C0E9804C4095F0265077101F405F90047
:1015A000FB04B30048048700C103690058035500D9
:1015B00003034500BE023A008402310053022A00B0
:1015C0002902250004022000E4011C00C8011900C2
:1015D000AF0117009801140084011300710110007D
:1015E0006101100051010E0043010D0036010B0096
:1015F0002B010B0020010B00150109000C01090053
:1016000003010800FB000800F3000800EB000700DE
:10161000E4000600DE000600D8000600D200060046
:10162000CC000500C7000500C2000500BD00040095
:10163000B9000400B5000400B1000400AD000400CE
:10164000A9000400A5000300A20003009F000400FD
:101650009B00030098000300950002009300030024
:10166000900003008D0002008B0003008800020040
:101670008600020084000300810002007F00020057
:101680007D0002007B00020079000200770001006B
:101690007600020074000200720001007100020076
:1016A0006F0002006D0001006C0002006A00010082
:1016B000690002006700010066000100650001008A
:1016C000640002006200010061000100600001008E
:1016D0005F0002005D0001005C0001005B00010092
:1016E0005A00010059000100580001005700010094
:1016F0005600010055000100540001005300000095
:10170000530001005200010051000100500001008F
:101710004F0001004E0000004E0001004D0001008E
:101720004C0001004B0000004B0001004A0001008A
:101730004900010048000000480001004700010086
:101740004600000046000100450000004500010081
:10175000440001004300000043000100420000007B
:101760004200010041000000410001004000010072
:101770003F0000003F0001003E0000003E0001006D
:101780003D0000003D0001003C0000003C00000066
:101790003C0001003B0000003B0001003A0000005B
:1017A0003A00010039000000390001003800000053
:1017B0003800000038000100370000003700010049
:1017C0003600000036000000360001003500000041
:1017D0003500000035000100340000003400000036
:1017E000340001003300000033000000330001002A
:1017F0003200000032000000320001003100000021
:101800003100000031000100300000003000000015
:10181000300001002F0000002F0000002F0000000A
:101820002F0001002E0000002E0000002E000100FD
:101830002D0000002D0000002D0000002D000100F3
:101840002C0000002C0000002C0000002C000100E7
:101850002B0000002B0000002B0000002B000100DB
:101860002A0000002A0000002A0000002A000100CF
:1018700029000000290000002900000029000000C4
:1018800029000100280000002800000028000000B6
:1018900028000000280001002700000027000000A9
:1018A000270000002700000027000100260000009C
:1018B000260000002600000026000000260001008F
:1018C0002500000025000000250000002500000084
:1018D0002500000025000100240000002400000075
:1018E0002400000024000000240001002300000068
:1018F000230000002300000023000000230000005C
:10190000230000002300010022000000220000004C
:10191000220000002200000022000000220001003E
:101920002100000021000000210000002100000033
:101930002100000021000000210001002000000023
:101940002000000020000000200000002000000017
:101950002000000020000000200001001F00000007
:101960001F0000001F0000001F0000001F000000FB
:101970001F0000001F0001001E0000001E000000EC
:101980001E0000001E0000004D3834205820592051
:101990005A20450070012C0190012701B00122015D
:1019A000C0011D01F00118011002130130020E01E7
:1019B0006002090190020401C002FF000003FA0066
:1019C0004003F5008003F000D003EB002004E600A4
:1019D0007004E100E004DC004005D700C005D2003F
:1019E0004006CD00D006C8008007C3003008BE0006
:1019F000F008B900C009B400B00AAF00B00BAA00EB
:101A0000D00CA500000EA000500F9B00C010960047
:101A10005012910000148C00C0158700B01782008E
:101A2000B0197D00D01B7800001E730040206E00AE
:101A300090226900F024640040275F0090295A003A
:101A4000E02B5500102E500020304B001032460085
:101A5000E033410090353C001037370070383200D9
:101A6000A0392D00B03A2800A03B2300603C1E00A6
:101A7000103D1900903D1400103E0F00703E0A000A
:101A8000C03E0500003F000043616E6E6F74206F22
:101A900070656E2073756264697220006563686F9B
:101AA0003A005072696E7465722068616C74656486
:101AB0002E206B696C6C28292063616C6C65642135
:101AC0000A00656E7175657565696E672022000094
:101AD00000000000000000000000005761726E6905
:101AE0006E673A20486F6D696E672042756D702091
:101AF00044697669736F72203C20310A000000A0AF
:101B0000400000A0400000004000004843000048A2
:101B10004300003443FFFFFF526573656E643A2053
:101B2000006F6B004E414E494E495459494E46CDC7
:101B3000CCCC3D0AD7233C17B7D13877CC2B329584
:101B400095E6241FB14F0A000020410000C8420062
:101B5000401C4620BCBE4CCA1B0E5AAEC59D74002C
:101B6000CF8A058C11241FBECFEFD1E2DEBFCDBFDF
:101B700000E00CBF13E0A0E0B2E0E0E8F0E301E039
:101B80000BBF02C007900D92AE3BB107D9F722E11F
:101B9000AEEBB3E001C01D92A833B207E1F71DE040
:101BA000C1EBDDE000E006C021970109802FFE01B6
:101BB0000E94668CC03BD10780E00807A9F70E940D
:101BC000C6850C942E980C9400002F923F924F9251
:101BD0005F926F927F928F929F92AF92BF92CF92BD
:101BE000DF92EF92FF920F931F93CF93DF93CDB7C6
:101BF000DEB7CF58D1090FB6F894DEBF0FBECDBF08
:101C000080912A0620E6829FC001112486559B4FB1
:101C10009093D4038093D30380910E0980FF1FC05B
:101C2000ECE9FAE164918F010F5F1F4F662349F0E1
:101C3000062E000C770B85EA9EE00E94AA39F80177
:101C4000F1CF6091D3037091D40385EA9EE00E94A6
:101C5000D3406AE070E085EA9EE00E94AA392091B4
:101C6000D3033091D403F90180812F5F3F4F80323D
:101C7000D1F3F093D403E093D3038E3469F0109141
:101C8000D3030091D4036AE270E0812F902F0E9469
:101C9000A68F0097D1F420C0818190ED980F9A30E3
:101CA00010F08D3261F73296DF0131962C9120537E
:101CB0002A30D0F3CD01FC01019620812032D9F3E6
:101CC000F093D403E093D303DACFFC0131968291F1
:101CD000803231F08A3221F0A12FB02F4D9102C015
:101CE0001082F5CFFD01808111968032D9F38053A7
:101CF0008A3020F0ECE9FAE10C946B2A20E030E025
:101D00005AE0529FC001539F900D11249C01205313
:101D100031098191280F311D87FD3A9580818053CB
:101D20008A3078F3CF013196DC015C915032D1F3E7
:101D30009093CC038093CB0361E070E07093D70362
:101D40006093D6034D3411F40C946917443511F4A3
:101D50000C942C2A473411F00C944D2A2430310570
:101D600009F48BC638F4809119022230310508F04D
:101D70001EC115C02A35310509F4E9C730F42C31EC
:101D8000310509F4C0C60C94622A2B35310509F4DB
:101D9000E2C72C35310509F4E3C70C94622A882385
:101DA00011F40C94622A0E94A03782E192E10E9411
:101DB000DF840E949F3980910E0983FDA7C0C090E7
:101DC0001E12D0901F12E0902012F090211220914C
:101DD0008504309186044091870450918804C7019E
:101DE000B6010E941894882309F490C08091D3080A
:101DF00081113EC02091290230912A0240912B028C
:101E000050912C026091040E7091050E8091060E87
:101E10009091070E0E94189487FF2AC0C0928504F3
:101E2000D0928604E0928704F0928804ECE9FAE10B
:101E300064918F010F5F1F4F662349F0062E000C3F
:101E4000770B85EA9EE00E94AA39F801F1CFE7ED11
:101E5000F1E064918F010F5F1F4F662349F0062E5A
:101E6000000C770B85EA9EE00E94AA39F801F1CFB9
:101E7000C0901E12D0901F12E0902012F0902112FC
:101E80002091850430918604409187045091880404
:101E9000C701B6010E94758C0E94D38D97FF07C0C1
:101EA00090958095709561957F4F8F4F9F4F693CBE
:101EB00071058105910554F1C0928504D092860484
:101EC000E0928704F0928804ECE9FAE164918F01D2
:101ED0000F5F1F4F662349F0062E000C770B85EA33
:101EE0009EE00E94AA39F801F1CFE8EBF1E064919D
:101EF0008F010F5F1F4F662349F0062E000C770BF2
:101F000085EA9EE00E94AA39F801F1CF20911212D1
:101F1000309113124091141250911512609179046E
:101F200070917A0480917B0490917C040E941894B3
:101F300081111DC020911612309117124091181274
:101F40005091191260917D0470917E0480917F04FC
:101F5000909180040E941894811109C06091000240
:101F60007091010280910202909103021AC0609167
:101F7000060270910702072E000C880B990B0E9435
:101F80001E94209100023091010240910202509172
:101F900003020E947D942AE037ED43E25CE30E9455
:101FA0007D940E94AD360E94A3360C94622A882349
:101FB00011F40C94622A11E02230310509F010E08E
:101FC0000E94A03782E50E94E536882309F452C1B9
:101FD0000E9477376B017C014090790450907A041D
:101FE00060907B0470907C0420917D0430917E048D
:101FF00040917F04509180042BAF3CAF4DAF5EAF5A
:102000008091121290911312A0911412B091151296
:1020100023968CAF9DAFAEAFBFAF23972091161222
:102020003091171240911812509119122B962CAF23
:102030003DAF4EAF5FAF2B9720E030E0A901C70165
:10204000B6010E941894882309F4F3C4A3019201F5
:1020500023966CAD7DAD8EAD9FAD23970E941894F5
:1020600081110FC02BAD3CAD4DAD5EAD2B966CAD6F
:102070007DAD8EAD9FAD2B970E941894882309F4F7
:10208000D8C420E030E0A901C701B6010E9418942D
:10209000881F8827881F18130BC080E090E0A0E8F5
:1020A000BFE367968CAF9DAFAEAFBFAF67970AC077
:1020B00020E030E040E85FEB67962CAF3DAF4EAFDD
:1020C0005FAF6797A301920123966CAD7DAD8EAD96
:1020D0009FAD23970E94758C2F966CAF7DAF8EAF0E
:1020E0009FAF2F972BAD3CAD4DAD5EAD2B966CAD3C
:1020F0007DAD8EAD9FAD2B970E94758C63966CAFB6
:102100007DAF8EAF9FAF63972F962CAD3DAD4EAD9B
:102110005FAD2F97CA01B9010E947D944B015C010C
:1021200063962CAD3DAD4EAD5FAD6397CA01B9016D
:102130000E947D949B01AC01C501B4010E94768C84
:102140000E94078F27966CAF7DAF8EAF9FAF27970A
:1021500020E030E040E05FE30E947D944B015C01B1
:10216000A7019601C701B6010E947D946B017C0115
:10217000A5019401C501B4010E947D949B01AC01AD
:10218000C701B6010E94758C0E94078F9B01AC01AC
:1021900067966CAD7DAD8EAD9FAD67970E947D94C7
:1021A0004B015C0123962CAD3DAD4EAD5FAD239749
:1021B000C301B2010E94768C20E030E040E05FE392
:1021C0000E947D946B017C0163966CAD7DAD8EADFC
:1021D0009FAD6397905827962CAD3DAD4EAD5FAD4A
:1021E00027970E94628D9B01AC01C501B4010E943A
:1021F0007D949B01AC01C701B6010E94768CA301BE
:1022000092010E94758C6B017C012B962CAD3DAD2B
:102210004EAD5FAD2B976BAD7CAD8DAD9EAD0E948D
:10222000768C20E030E040E05FE30E947D942B015B
:102230003C0127962CAD3DAD4EAD5FAD27972F9657
:102240006CAD7DAD8EAD9FAD2F970E94628D9B01D1
:10225000AC01C501B4010E947D949B01AC01C30196
:10226000B2010E94768C2BAD3CAD4DAD5EAD0E94AF
:10227000758C14C089E40E94E536882329F00E94F9
:1022800077376B017C0103C0C12CD12C76018AE425
:102290000E94E5368823D9F00E9477376BAF7CAF78
:1022A0008DAF9EAF20E030E0A901C701B6010E94CA
:1022B000189481111AC020E030E0A9016BAD7CAD0B
:1022C0008DAD9EAD0E94189481110FC0B2C320E065
:1022D00030E0A901C701B6010E941894882309F4CF
:1022E000A8C31BAE1CAE1DAE1EAEA7019601C70152
:1022F000B6010E947D944B015C012BAD3CAD4DAD10
:102300005EADCA01B9010E947D949B01AC01C5017B
:10231000B4010E94768C0E94078FAF966CAF7DAFA0
:102320008EAF9FAFAF978091790490917A04A0917E
:102330007B04B0917C0427968CAF9DAFAEAFBFAF4E
:102340002797A7019601BC01CD010E94768C679664
:102350006CAF7DAF8EAF9FAF679720917D043091BA
:102360007E0440917F04509180042F962CAF3DAFA6
:102370004EAF5FAF2F972BAD3CAD4DAD5EAD2F9601
:102380006CAD7DAD8EAD9FAD2F970E94768C6B9618
:102390006CAF7DAF8EAF9FAF6B97809181049091B2
:1023A0008204A0918304B09184046F968CAF9DAF9A
:1023B000AEAFBFAF6F979C01AD0160911A127091E3
:1023C0001B1280911C1290911D120E94758C6396B5
:1023D0006CAF7DAF8EAF9FAF639720911E1230918F
:1023E0001F124091201250912112E3962CAF3DAF65
:1023F0004EAF5FAFE3978091850490918604A091E2
:102400008704B0918804A3968CAF9DAFAEAFBFAFE9
:10241000A397A7019601505823962CAF3DAF4EAF1E
:102420005FAF23978BAD9CADADADBEADB0582B96D5
:102430008CAF9DAFAEAFBFAF2B97209112123091F2
:1024400013124091141250911512A7962CAF3DAF64
:102450004EAF5FAFA79767962CAD3DAD4EAD5FAD6C
:102460006797A7966CAD7DAD8EAD9FADA7970E9487
:10247000758C6B017C018091161290911712A091BE
:102480001812B0911912AB968CAF9DAFAEAFBFAF23
:10249000AB976B962CAD3DAD4EAD5FAD6B97BC0170
:1024A000CD010E94758C4B015C01A701960123961A
:1024B0006CAD7DAD8EAD9FAD23970E947D942B01B9
:1024C0003C01A50194012B966CAD7DAD8EAD9FAD09
:1024D0002B970E947D949B01AC01C301B2010E9425
:1024E000768C2B013C01A501940123966CAD7DAD4A
:1024F0008EAD9FAD23970E947D944B015C01A70197
:1025000096012B966CAD7DAD8EAD9FAD2B970E9445
:102510007D949B01AC01C501B4010E94758CA3019F
:1025200092010E94F48C6B017C0120E030E0A90153
:102530000E94189487FF0AC02BED3FE049EC50E45D
:10254000C701B6010E94768C6B017C01112351F00A
:102550002BED3FE049EC50E4C701B6010E94758CB9
:102560006B017C0120E030E0A901C701B6010E94A7
:10257000189481112AC0A7962CAD3DAD4EAD5FAD2C
:10258000A79727966CAD7DAD8EAD9FAD27970E9426
:10259000189481111AC0AB962CAD3DAD4EAD5FAD18
:1025A000AB972F966CAD7DAD8EAD9FAD2F970E94F2
:1025B000189481110AC02BED3FE049EC50E4C701AB
:1025C000B6010E94768C6B017C01AF962CAD3DADBF
:1025D0004EAD5FADAF97C701B6010E947D949B01E0
:1025E000AC010E947D944B015C0163962CAD3DAD26
:1025F0004EAD5FAD6397CA01B9010E947D949B0106
:10260000AC01C501B4010E94768C0E94078F4B017A
:102610005C012FE632E143E85AE30E94189487FDFB
:1026200004C2C501B4010E94088E0E94D98D2D9666
:102630007FAF6EAF2D97DB01AB2B31F4E1E0F0E023
:102640002D96FFAFEEAF2D972D962EAD3FAD2D976A
:10265000B90180E090E00E941C944B015C019B0159
:10266000AC01C701B6010E94628D27966CAF7DAFA9
:102670008EAF9FAF2797A501940163966CAD7DAD9A
:102680008EAD9FAD63970E94628DA7966CAF7DAFB4
:102690008EAF9FAFA797A3962CAD3DAD4EAD5FAD6E
:1026A000A397E3966CAD7DAD8EAD9FADE3970E9491
:1026B000758CA50194010E94628DAB966CAF7DAFC5
:1026C0008EAF9FAFAB9727962CAD3DAD4EAD5FADB6
:1026D0002797CA01B9010E947D9420E030E040E0D4
:1026E0005FE30E947D949B01AC0160E070E080E8B4
:1026F0009FE30E94758C63966CAF7DAF8EAF9FAFEA
:1027000063976F968CAD9DADAEADBFAD6F9789876A
:102710009A87AB87BC87A3962CAD3DAD4EAD5FAD20
:10272000A3972D873E874F87588B60910602709143
:102730000702072E000C880B990B0E941E94209113
:1027400000023091010240910202509103020E9466
:102750007D942AE037ED43E25CE30E947D946F961E
:102760006CAF7DAF8EAF9FAF6F970E9430609B01C3
:10277000AC0128533F4F4F4F5F4FA3962CAF3DAF57
:102780004EAF5FAFA3974FAC21965FAC21972296D7
:102790006FAC229723967FAC239722242394312C6D
:1027A000D12C2D968EAD9FAD2D972816390609F4A4
:1027B00028C180916E0881110E94B6640E94306029
:1027C000DC01CB01A3962CAD3DAD4EAD5FADA39723
:1027D000821B930BA40BB50BB7FD10C00E94306099
:1027E0009B01AC0128533F4F4F4F5F4FA3962CAF37
:1027F0003DAF4EAF5FAFA3970E94BF2CD39438E19B
:102800003D150CF44BC063962CAD3DAD4EAD5FADA8
:1028100063972B966CAD7DAD8EAD9FAD2B970E94CF
:102820007D944B015C0127962CAD3DAD4EAD5FAD67
:102830002797B201C3010E947D94A50194010E94D3
:10284000768C7B018C0163962CAD3DAD4EAD5FADBA
:102850006397B201C3010E947D944B015C012796EE
:102860002CAD3DAD4EAD5FAD27972B966CAD7DADDC
:102870008EAD9FAD2B970E947D949B01AC01C5014D
:10288000B4010E94758C2B013C01C701D8012B9625
:102890008CAF9DAFAEAFBFAF2B9756C0B10180E0FC
:1028A00090E00E941C9427962CAD3DAD4EAD5FADDF
:1028B00027970E947D944B015C010E945F8D6B0104
:1028C0007C01C501B4010E94FC8E4B015C01A70193
:1028D000960123966CAD7DAD8EAD9FAD23970E9482
:1028E0007D942B013C01A50194016BAD7CAD8DADB8
:1028F0009EAD0E947D949B01AC01C301B2010E9478
:10290000768C2B013C01A501940123966CAD7DAD25
:102910008EAD9FAD23970E947D944B015C01A70172
:1029200096016BAD7CAD8DAD9EAD0E947D949B01FB
:10293000AC01C501B4010E94758C2B966CAF7DAFC4
:102940008EAF9FAF2B97D12C9201A30167966CADF0
:102950007DAD8EAD9FAD67970E94768C69837A833B
:102960008B839C832B962CAD3DAD4EAD5FAD2B97ED
:102970006B966CAD7DAD8EAD9FAD6B970E94768CE6
:102980006D837E838F839887A7962CAD3DAD4EAD2A
:102990005FADA79769857A858B859C850E94768C2B
:1029A00069877A878B879C87AB962CAD3DAD4EAD02
:1029B0005FADAB976D857E858F8598890E94768CFB
:1029C0006D877E878F87988BCE0101960E94DF846A
:1029D000C090C5036F96ECACFDAC0EAD1FAD6F970C
:1029E0009E01235F3F4FAE01475F5F4FBE016B5FAC
:1029F0007F4FCE0101960E9424694FEF241A340ABA
:102A0000D0CEC090C5036F96ECACFDAC0EAD1FAD43
:102A10006F972EE132E14AE152E166E172E182E133
:102A200092E10E9424690E94A3360E949F390C946F
:102A3000622AEEE4F0E164918F010F5F1F4F66237D
:102A400049F0062E000C770B85EA9EE00E94AA3919
:102A5000F801F1CFE2EFF1E064918F010F5F1F4FBA
:102A6000662311F40C94622A062E000C770B85EA7B
:102A70009EE00E94AA39F801EFCF80E50E94E5367A
:102A8000882371F08091C2039091C3034AE050E023
:102A900060E070E001960E946C926B017C0103C0C3
:102AA000C12CD12C760183E50E94E536882361F0A4
:102AB0000E94773720E030E04AE754E40E947D949A
:102AC0000E94D98D6B017C010E9494670E949F39FE
:102AD0008091D8039091D903A091DA03B091DB03E0
:102AE000C80ED91EEA1EFB1E0E943060DC01CB011D
:102AF0008C199D09AE09BF09B7FD02C00C94622A6A
:102B00000E94BF2CF1CF0E94946740900002509029
:102B1000010260900202709003024092CF03509233
:102B2000D0036092D1037092D203809106029091FB
:102B300007029093CE038093CD0384E690E09093B8
:102B40000702809306020E949F3981E0809314025D
:102B500088E50E94E536382E89E50E94E536182F73
:102B60008AE50E94E536082F311005C0111105C015
:102B700091E0982705C0111102C090E001C0982F84
:102B80009093040280E1E9E7F4E0A2E1B2E1019070
:102B90000D928A95E1F7911105C0311003C0112300
:102BA00009F493C020E030E040EA50E460917504FD
:102BB0007091760480917704909178040E94768CCD
:102BC00020910B1230910C1240910D1250910E1267
:102BD0000E94768C6B017C0160931A1270931B1219
:102BE00080931C1290931D12809081049090820417
:102BF000A0908304B0908404A50194010E94BE8E2D
:102C000018160CF062C0A7019601C501B4010E941C
:102C1000189487FF16C080E090E0A0E8B0E48093AD
:102C2000000290930102A0930202B0930302C092AB
:102C30008104D0928204E0928304F09284040E9482
:102C4000C63685E595E5A5E0B3E480930002909350
:102C50000102A0930202B09303020E94C636C09004
:102C60001A12D0901B12E0901C12F0901D12A701B6
:102C70009601609181047091820480918304909107
:102C800084040E94BE8E1816B4F480E090E0A0E8A0
:102C9000B0E48093000290930102A0930202B093EB
:102CA0000302C0928104D0928204E0928304F092E5
:102CB00084040E94C6360E9494674092000250929B
:102CC000010260920202709203028091040281115B
:102CD00002C0332021F080E090E00E940C838091BC
:102CE0000402811102C0112321F081E090E00E94D2
:102CF0000C8380910402811102C0002321F082E044
:102D000090E00E940C830E948E3880912C06809364
:102D100014028091CF039091D003A091D103B09180
:102D2000D2038093000290930102A0930202B09319
:102D300003028091CD039091CE039093070280937C
:102D400006020E949F390E94B1390C94622A1092A7
:102D5000CA030C94622A81E08093CA030C94632A0C
:102D600085E40E94E536B82E811102C00E94946766
:102D700086E5882E82E0982E99E7C92E94E0D92E18
:102D800023E0E22E22E1F22E00E010E0A12CD4019B
:102D90008D914D010E94E536882309F44EC0F6015D
:102DA0002081318142815381C457DF4F2883CC5821
:102DB000D040C357DF4F3883CD58D040C257DF4F84
:102DC0004883CE58D040C157DF4F5883CF58D040AA
:102DD0000E947737D6016D937D938D939C931397C3
:102DE000C457DF4F2881CC58D040C357DF4F3881BC
:102DF000CD58D040C257DF4F4881CE58D040C15740
:102E0000DF4F5881CF58D04003301105B1F00E94F8
:102E1000758C9B01AC01F701608171818281938186
:102E20000E94768CD7016D937D938D939C9313971D
:102E3000C8010E944E39AA24A3940F5F1F4FB4E02B
:102E4000CB0ED11CE4E0EE0EF11C0430110509F0AC
:102E50009ECFAA2019F00E948E3837C0BB20A9F15E
:102E6000C0908504D0908604E0908704F090880498
:102E700020913B0930913C0940913D0950913E0918
:102E8000C701B6010E947D940E94C98E6093620FB3
:102E90007093630F8093640F9093650FC701B60121
:102EA0000E94D38D2FB7F89460936A0870936B08D3
:102EB00080936C0890936D082FBF1092520F109260
:102EC000530F1092540F1092550F0E94B1390C9469
:102ED000622A2F36310509F441C508F0B2C02B34FF
:102EE000310509F4D8C408F05AC02931310509F474
:102EF000D8C198F52531310509F4BEC110F522314C
:102F0000310511F40C9408212431310509F465C10F
:102F10002131310511F00C94622A8E989FB7F894F4
:102F2000809108018D7F809308019FBF9FB7F8941F
:102F3000809108018F7E809308019FBF8B980C942D
:102F4000622A2731310509F49BC108F09FC1109214
:102F5000780F1092790F0C94622A2E31310509F402
:102F600002C288F42B31310509F4ADC108F49DC1CA
:102F70002C31310511F00C94622A40E060E00E948F
:102F80005C580C94622A2032310509F412C308F40B
:102F90005FC32A32310509F42CC40C94622A2C3503
:102FA000310511F40C945A2190F52235310511F4B4
:102FB0000C94FF20E8F42D34310509F48AC408F498
:102FC0006EC42135310511F00C94622A0E94D5603F
:102FD0000E9494670E947B8410920D0910920C0944
:102FE00068EE73E080E090E00E94F85F0C94622A43
:102FF0002435310511F40C94082110F40C940321AC
:103000002535310511F40C943F210C94622A2B369E
:10301000310511F40C94ED2068F42936310509F4DA
:1030200079C510F00C94CA202836310509F455C42E
:103030000C94622A2D36310509F491C508F415C5A2
:103040007AC4233D310511F40C944A2408F05CC085
:103050002C38310509F445C520F52337310511F425
:103060000C94E72158F42137310509F406C510F016
:103070000C94E32182EF92E00E944F8428373105BF
:1030800011F40C9470222937310511F40C94762236
:103090002737310511F00C94622AE5EFF3E00C9428
:1030A000FA212B3C310511F40C94E52280F4283CE4
:1030B000310511F40C947B22293C310511F40C9458
:1030C000C4222E3B310511F00C94622AD9C62D3C46
:1030D000310511F40C94782310F40C9402232E3C47
:1030E000310511F00C94622A16E5A12E12E0B12EE2
:1030F00009E7C02E04E0D02E8DE6E82E84E0F82EFD
:1031000000E010E00C94F8232A39F1E03F0709F4BD
:10311000B0C450F52D3251E0350711F40C944F2511
:1031200088F42D3D310511F40C940B25223E310518
:1031300011F40C9424252C3D310511F00C94622AD5
:103140000C94FE242F3291E0390711F40C94792667
:1031500010F40C94FE252039314011F00C94622AB1
:103160000E9494670C94622A263FE1E03E0711F426
:103170000C940F2A00F5243F41E0340711F40C941D
:10318000092A10F00C940C2A2C3A314011F00C94BE
:10319000622A89E7282E84E0382E8DE694E09CAFE1
:1031A0008BAFAFE0B2E12196BFAFAEAF219700E0A9
:1031B00010E00C942224203AA3E03A0709F43FC21D
:1031C000273EB3E03B0711F40C941E2A273F314001
:1031D00011F00C94622A0C94122AE7E1F2E0649157
:1031E0008F010F5F1F4F662349F0062E000C770BEF
:1031F00085EA9EE00E94AA39F801F1CF1092FE11F3
:103200001092FD1140E050E0BA0189EA9FE00E946F
:10321000B84F8BE1E9EAFFE0DE01159601900D92CF
:103220008A95E1F78091A70F9091A80F9C838B83DB
:1032300082EF92E09A83898340E050E0BE016F5FA5
:103240007F4F8BE993E00E948A7ECE0101960E9417
:103250004784E8E0F2E064918F010F5F1F4F66231F
:1032600011F40C94622A062E000C770B85EA9EE07E
:103270000E94AA39F801EFCF0E94B65B0C94622A33
:1032800040E061E00E945C580C94622A8091790FC2
:10329000882319F081E08093780F0E94245E0C94BB
:1032A000622A1092780F0C94622A8091790F8823F9
:1032B00011F40C94622A83E50E94E53681110C9486
:1032C000912A0C94622A8091790F8823C9F1E8E24F
:1032D000F2E064918F010F5F1F4F662349F0062EC5
:1032E000000C770B85EA9EE00E94AA39F801F1CF25
:1032F0004091F4115091F5116091F6117091F71110
:103300002AE085EA9EE00E948B406FE270E085EA49
:103310009EE00E94AA394091F0115091F111609104
:10332000F2117091F3112AE085EA9EE00E948B4031
:103330006AE070E085EA9EE00E94AA390C94622A55
:10334000EAE3F2E064918F010F5F1F4F662311F4EF
:103350000C94622A062E000C770B85EA9EE00E94F0
:10336000AA39F801EFCF8091790F882311F40C94DA
:10337000622A83E491E10E94774F83E491E10E9405
:1033800003561092770F1092760FE090CB03F090D7
:10339000CC038091790F882311F40C94622A0E9447
:1033A0005F7D1D8218861C821B8282EF92E09A83C9
:1033B000898385EA9FE09093C50F8093C40FD7015E
:1033C0008C918F3209F06CC06FE270E0C7010E94EF
:1033D000A68F8C010F5F1F4FFE0131964F01011523
:1033E000110509F463C06FE270E0C8010E94A68F66
:1033F0006C01009709F45BC00817190708F057C063
:103400005C01A01AB10AA501B801CE0180960E9404
:10341000CF8FE0E2F0E0EC0FFD1FEA0DFB1D108204
:10342000BE01605E7F4F85EA9EE00E94D3406AE065
:1034300070E085EA9EE00E94AA396091C40F709105
:10344000C50F6115710511F06C5F7F4F21E0AE0172
:10345000405E5F4FCE0105960E940B56811118C049
:10346000BE01605E7F4F81E792E00E94133F6EE2F3
:1034700070E085EA9EE00E94AA396AE070E085EA81
:103480009EE00E94AA39C4010E9447840C94622ADB
:103490009092C50F8092C40F86010F5F1F4F9FCF80
:1034A00086EC9FE09093C50F8093C40F87016091D5
:1034B000C40F7091C50F6115710511F06C5F7F4FDE
:1034C00018A21BA222E0A801CE0180960E940B56F2
:1034D000811102C0F12C1EC0CE0180960E94CD7CCD
:1034E0008823C1F36CA57DA58EA59FA541E00E9410
:1034F000C74D882379F3E8A920E2E29FF001112467
:10350000E55BF94F309731F385EE80831BA20E9473
:10351000874DF82ECE0180960E949939FF2031F117
:10352000EBE4F2E064917F013FEFE31AF30A6623D4
:1035300049F0062E000C770B85EA9EE00E94AA391E
:10354000F701F0CFB80185EA9EE00E94D3406AE01F
:1035500070E085EA9EE00E94AA391092F411109260
:10356000F5111092F6111092F7111DC0E9E5F2E085
:1035700064917F014FEFE41AF40A662349F0062EA6
:10358000000C770B85EA9EE00E94AA39F701F0CF84
:10359000B80185EA9EE00E94D3406EE270E085EAC1
:1035A0009EE00E94AA39CE0101960E9447840C94A5
:1035B000622A8091780F81110E9494670091CB0359
:1035C0001091CC0361E270E0C8010E94A68F0097C1
:1035D00019F08C010F5F1F4F80E50E94E5368823AC
:1035E00049F0FF24F3948091C2039091C3038017A4
:1035F000910708F0F12C8091790F882311F40C9435
:10360000622A4F2D61E0C8010E945C5883E50E9448
:10361000E536882349F08091C2039091C303801757
:10362000910710F40C94A22A8091790F882319F045
:1036300081E08093780FF1100C94622A2ECE21E065
:103640002093770F40E060E00E945C580C94622A5F
:103650000E94547E0CE3C02ED12CE12CF12CA7014A
:1036600096010E94F397762E672ECA01B901A70131
:1036700096010E94F3976B017C01CA01B90128E110
:1036800030E040E050E00E94F3974B015C01C9013B
:103690006DE671E00E94228C8E010F5F1F4F611555
:1036A000710599F06F927F92DF92CF929F928F92E5
:1036B0009F938F937F936F938DEA92E09F938F9365
:1036C0001F930F930E94E99326C0009789F06F9291
:1036D0007F92DF92CF929F928F929F938F938DE9EB
:1036E00092E09F938F931F930F930E94E99313C0CF
:1036F00081149104A104B104B1F06F927F92DF9222
:10370000CF929F928F9281E992E09F938F931F9324
:103710000F930E94E9930FB6F894DEBF0FBECDBFA2
:10372000ECE9FAE123C0C114D104E104F10469F029
:103730006F927F92DF92CF9289E892E09F938F936E
:103740001F930F930E94E993E6CF6F927F9285E8D3
:1037500092E09F938F931F930F930E94E9930F9092
:103760000F900F900F900F900F90DACF64917F0120
:103770003FEFE31AF30A662349F0062E000C770B9D
:1037800085EA9EE00E94AA39F701F0CFB80181ECEA
:1037900092E00E94133F6AE070E085EA9EE00E949A
:1037A000AA3980913F09882311F40C94622A10925F
:1037B0003F096091020E7091030E072E000C880BDA
:1037C000990B0E941E94209137023091380240914B
:1037D000390250913A020E94BE8E181614F00C94D1
:1037E000622A1092030E1092020E0E947D7C0C94AD
:1037F000622A83E50E94E536882311F40C94622A3C
:103800000E945F377C018F3F910519F010F00C94F6
:10381000622A80E50E94E536882339F00E945F37EE
:103820008C0197FF04C00C94622A0DE010E0D02EAA
:10383000EAE5F2E0C801992721913191281739076B
:1038400031F052E0EA3AF507B9F70C944F2AEEE46A
:10385000F0E164918F010F5F1F4F662349F0062E40
:10386000000C770B85EA9EE00E94AA39F801F1CF9F
:10387000EEECF2E064918F010F5F1F4F662311F4AD
:103880000C94622A062E000C770B85EA9EE00E94BB
:10389000AA39F801EFCF0E94245E0C94622A80912D
:1038A000680F9091690F019711F00C94622A82E0E1
:1038B00090E09093690F8093680F0E94306060934E
:1038C000720F7093730F8093740F9093750F0C9415
:1038D000622A0E94097E0C94622A88E690E00E9487
:1038E000CC3E81110C94622A80910E0983FF02C0A4
:1038F0000C94622A83E50E94E5368823C1F00E9479
:1039000077370E94D38D7093030E6093020E0E944E
:103910007D7C0E94773720E030E04AEA52E40E9442
:103920001894181614F00E94097E0E9477370E949E
:103930009E670C94622A8EE40E94E536882311F477
:103940000C94622A0E946C376093BE037093BF038D
:103950008093C0039093C1030C94622A83E50E9474
:10396000E536882319F00E94F83601C080E0809384
:103970000E09ECE9FAE164918F010F5F1F4F662396
:1039800049F0062E000C770B85EA9EE00E94AA39CA
:10399000F801F1CFEBEEF2E064918F010F5F1F4F62
:1039A000662349F0062E000C770B85EA9EE00E9404
:1039B000AA39F801F1CF80910E09882309F43CC09F
:1039C0001DEDC12E12E0D12EE12CF12C20E08091D2
:1039D0000E0990E00E2C02C0959587950A94E2F7A7
:1039E00080FF1FC0BB24B394B20E222331F06CE2DF
:1039F00070E085EA9EE00E94AA39F60185919491D3
:103A0000FC0164918C010F5F1F4F662349F0062E65
:103A1000000C770B85EA9EE00E94AA39C801F0CF1E
:103A20002B2DFFEFEF1AFF0A32E0C30ED11C45E049
:103A3000E416F10461F611C0E7EEF2E064918F0143
:103A40000F5F1F4F662349F0062E000C770B85EAA7
:103A50009EE00E94AA39F801F1CF6AE070E085EAA1
:103A60009EE00E94AA390C94622A109208020C94DB
:103A7000622A0E9498380C94622A83E50E94E536F7
:103A8000882369F00E94F836809309028D3310F480
:103A90000C94622A8CE3809309020C94622AECE96C
:103AA000FAE164918F010F5F1F4F662349F0062EE4
:103AB000000C770B85EA9EE00E94AA39F801F1CF4D
:103AC0004091090250E060E070E08BEF92E00E94CC
:103AD000253E6AE070E085EA9EE00E94AA390C94D7
:103AE000622A80910E0983FF02C00C94622A83E54A
:103AF0000E94E536882311F40C94622A0E947737DD
:103B00000E94D38D70937108609370080E94866044
:103B10000C94622A89E690E00E94CC3E811119C083
:103B2000E2E0F3E064918F010F5F1F4F662349F0DD
:103B3000062E000C770B85EA9EE00E94AA39F80158
:103B4000F1CF0E94983A6AE070E085EA9EE00E9418
:103B5000AA391092D7031092D6030C94A52C8DE6A7
:103B600090E00E94CC3E81110C94622A80910E0953
:103B700083FF02C00C94622A83E50E94E5362896F2
:103B80008FAF2897811105C082E50E94E536882312
:103B9000C1F00E9477370E94D38D7093030E60931B
:103BA000020E0E947D7C0E94773720E030E04AEAD6
:103BB00052E40E941894181614F40C94B42A0E942B
:103BC000097E0E949E6781E0809308021092D703CD
:103BD0001092D60323961CAE1DAE1EAE1FAE2397C9
:103BE00027961CAE1DAE1EAE1FAE27971BAE2C96A1
:103BF0001FAE2C975CE360965FAF60978CE1649694
:103C00008FAF649796E468969FAF6897C12CD12CCC
:103C1000A0E8EA2EBFEBFB2E812C912C5401609181
:103C2000020E7091030E072E000C880B990B0E9458
:103C30001E94162F072F782E692E262F372F482FE8
:103C4000592FB601C7010E9418948823E9F02091EA
:103C5000040E3091050E4091060E5091070E612F13
:103C6000702F872D962D0E941894881F8827881FF3
:103C70008BAF2896AFAD2897AA2351F0882341F047
:103C8000809108020C94622A1C2D0D2D7E2C6F2C25
:103C90000E9430606B017C01DC01CB0127962CADCA
:103CA0003DAD4EAD5FAD2797821B930BA40BB50BBB
:103CB000B7FD56C0D701C60188519C4FAF4FBF4FCB
:103CC00027968CAF9DAFAEAFBFAF27970E94983AB3
:103CD000E8E0F3E064912F019FEF491A590A662347
:103CE00049F0062E000C770B85EA9EE00E94AA3967
:103CF000F201F0CF81149104A104B104F9F0D501CF
:103D0000C401805F984DAF4FBF4FBC01CD016C190E
:103D10007D098E099F0928EE33E040E050E00E94C3
:103D2000F397BA01A90185EA9EE00E94227E6AE02B
:103D300070E085EA9EE00E94AA3912C0E5E0F3E057
:103D400064912F01AFEF4A1A5A0A662349F0062EF2
:103D5000000C770B85EA9EE00E94AA39F201F0CFB1
:103D60000E94BF2C0E949F392090040E3090050EB7
:103D70004090060E5090070E9101A201612F702F06
:103D8000872D962D0E94758C9F7781149104A10434
:103D9000B10449F420E030E040E85FE30E94189469
:103DA00087FF0BC008C020E030E040E450E40E94F0
:103DB000BE8E181614F446015701BBADBB2309F49F
:103DC00043C023962CAD3DAD4EAD5FAD239721157D
:103DD00031054105510541F0D701C601821B930B06
:103DE000A40BB50BB7FD30C09101A2012C966FADAD
:103DF0002C9760967FAD609764968FAD64976896B8
:103E00009FAD68970E94758C20E030E040EC5FE346
:103E10000E94189487FD34CFD701C601805A95417E
:103E2000AF4FBF4F23968CAF9DAFAEAFBFAF2397C1
:103E30002C962FAE2C9760963FAE609764964FAE4F
:103E4000649768965FAE689780910802882309F4AA
:103E500017CF81149104A104B10429F4C12ED02EEE
:103E6000E72CF62CDCCE90E1C91A97E2D90AE108DA
:103E7000F108C818D908EA08FB08F7FE01CFEECF11
:103E800080910E0983FF02C00C94622A83E50E9490
:103E9000E53628968FAF2897811105C082E50E94EC
:103EA000E5368823B1F00E9477370E94D38D709356
:103EB0007108609370080E9486600E94773720E046
:103EC00030E040EA50E40E94BE8E181614F40E94BE
:103ED000245E81E0809308021092D7031092D603EB
:103EE0008091C5038093C40323961CAE1DAE1EAE05
:103EF0001FAE239727961CAE1DAE1EAE1FAE279792
:103F00001BAE2C961FAE2C97ACE36096AFAF6097BC
:103F1000BCE16496BFAF6497E6E46896EFAF68973C
:103F2000C12CD12CE0E8EE2EFFEBFF2E812C912C42
:103F300054016091700870917108072E000C880B75
:103F4000990B0E941E94162F072F782E692E262F6C
:103F5000372F482F592FB601C7010E941894882384
:103F6000E9F02091720830917308409174085091E3
:103F70007508612F702F872D962D0E941894881F29
:103F80008827881F8BAF2896FFAD2897FF2351F015
:103F9000882341F0809108020C94622A1C2D0D2D7B
:103FA0007E2C6F2C0E9430606B017C01DC01CB0108
:103FB00027962CAD3DAD4EAD5FAD2797821B930B81
:103FC000A40BB50BB7FD56C0D701C60188519C4F55
:103FD000AF4FBF4F27968CAF9DAFAEAFBFAF279708
:103FE0000E94983AEFE0F3E064912F019FEF491AA5
:103FF000590A662349F0062E000C770B85EA9EE0ED
:104000000E94AA39F201F0CF81149104A104B104F5
:10401000F9F0D501C401805F984DAF4FBF4FBC018F
:10402000CD016C197D098E099F0928EE33E040E02F
:1040300050E00E94F397BA01A90185EA9EE00E9430
:10404000227E6AE070E085EA9EE00E94AA3912C0F2
:10405000ECE0F3E064912F01AFEF4A1A5A0A6623AD
:1040600049F0062E000C770B85EA9EE00E94AA39E3
:10407000F201F0CF0E94BF2C0E949F39209072085D
:104080003090730840907408509075089101A20117
:10409000612F702F872D962D0E94758C9F7781142C
:1040A0009104A104B10449F420E030E040E85FE36A
:1040B0000E94189487FF0BC008C020E030E040E465
:1040C00050E40E94BE8E181614F446015701BBAD91
:1040D000BB2309F443C023962CAD3DAD4EAD5FAD7F
:1040E0002397211531054105510541F0D701C6013E
:1040F000821B930BA40BB50BB7FD30C09101A2013D
:104100002C966FAD2C9760967FAD609764968FADBF
:10411000649768969FAD68970E94758C20E030E0A8
:1041200040EC5FE30E94189487FD34CFD701C601AD
:10413000805A9541AF4FBF4F23968CAF9DAFAEAF26
:10414000BFAF23972C962FAE2C9760963FAE60970B
:1041500064964FAE649768965FAE68978091080248
:10416000882309F417CF81149104A104B10429F420
:10417000C12ED02EE72CF62CDCCE90E1C91A97E2A6
:10418000D90AE108F108C818D908EA08FB08F7FEBF
:1041900001CFEECF83E50E94E536882321F00E940F
:1041A00052378C0102C00FEF10E080E50E94E53627
:1041B000882331F00E945237892B11F00C94622A27
:1041C00098010F3F110519F010F02FEF30E03093F8
:1041D0000D0920930C090C94622A80E50E94E536B3
:1041E000811106C010920D0910920C090C94622ADC
:1041F0000E945237892B11F00C94622AF3CF10924F
:10420000C9030C94622A81E08093C9030C94632A49
:1042100083E50E94E5368823A1F00E94773720E0ED
:1042200030E04AE754E40E947D940E94D98D609367
:104230000A0270930B0280930C0290930D020C946F
:10424000622A88E50E94E53681110C94B82A89E536
:104250000E94E53681110C94B82A8AE50E94E53661
:1042600081110C94B82A85E40E94E53681110C94E2
:10427000B82A0E9494670E947B840C94622A83E58A
:104280000E94E536882311F40C94622A0E94773745
:1042900020E030E04AE754E40E947D940E94D98DEA
:1042A0006093DC037093DD038093DE039093DF0360
:1042B0000C94622A66E5C62E62E0D62E7FE2E72ED7
:1042C00079E0F72E10E0D6018D916D010E94E53660
:1042D000882309F46DC0133009F063C00E9477375A
:1042E0004B015C0120E030E040EA51E40E94189468
:1042F00087FF4EC0A501940160913B0970913C0974
:1043000080913D0990913E090E94628D2B013C01F4
:104310009B01AC016091E0087091E1088091E20896
:104320009091E3080E947D946093E0087093E10807
:104330008093E2089093E308A30192016091FC0846
:104340007091FD088091FE089091FF080E947D9475
:104350006093FC087093FD088093FE089093FF081B
:1043600060911B0970911C0980911D0990911E0993
:104370000E941C94A30192010E947D940E94D98DF9
:1043800060931B0970931C0980931D0990931E096B
:1043900080923B0990923C09A0923D09B0923E095F
:1043A00007C00E947737F70160837183828393830C
:1043B0001F5FF4E0EF0EF11C143009F084CF0E946F
:1043C000FA680C94622A0E94B1390C94622AE3E1E3
:1043D000F3E064918F010F5F1F4F662311F40C947B
:1043E000622A062E000C770B85EA9EE00E94AA390D
:1043F000F801EFCF64918F010F5F1F4F662349F0E3
:10440000062E000C770B85EA9EE00E94AA39F8017F
:10441000F1CFEDEEF3E064918F010F5F1F4F662344
:1044200049F0062E000C770B85EA9EE00E94AA391F
:10443000F801F1CF789B03C06EE173E002C064E144
:1044400073E085EA9EE00E94D3406AE070E085EA6E
:104450009EE00E94AA39E5EEF3E064918F010F5FC0
:104460001F4F662349F0062E000C770B85EA9EE06D
:104470000E94AA39F801F1CF029B03C06EE173E0FC
:1044800002C064E173E085EA9EE00E94D3406AE0E6
:1044900070E085EA9EE00E94AA39EDEDF3E06491B8
:1044A0008F010F5F1F4F662349F0062E000C770B1C
:1044B00085EA9EE00E94AA39F801F1CF019B03C072
:1044C0006EE173E002C064E173E085EA9EE00E9461
:1044D000D3406AE070E085EA9EE00E94AA39F2C704
:1044E00081E08093140280932C06EDC71092140291
:1044F00010922C06E7C788EC90E00E94CC3E811118
:10450000E1C784E40E94E536882309F4DBC70E94F2
:10451000773711E020E030E0A9010E941894811162
:1045200001C010E010932E06112359F10091C4032D
:1045300010E00E947737000F111F000F111FF801C4
:10454000EB5EFD4F608371838283938320E030E0D4
:10455000A901609115027091160280911702909145
:1045600018020E94189481110CC080E090E0A0E431
:10457000B0E48093150290931602A0931702B093B3
:1045800018020E9494849EC73FE1E32E39E0F32E87
:1045900006E512E044E0D42ED00ED8018D918D01B5
:1045A0000E94E536882349F00E9477370E94D98D12
:1045B000F7016083718382839383F4E0EF0EF11C33
:1045C000D012EBCF0E94CE677DC790EFE92E98E026
:1045D000F92E06E512E024E0D22ED00ED8018D91FE
:1045E0008D010E94E536882339F00E947737F70164
:1045F0006083718382839383F4E0EF0EF11CD01209
:10460000EDCF60C783E50E94E5368823F1F00E9474
:104610007737AB01BC014093E8085093E9086093F9
:10462000EA087093EB084093E4085093E508609320
:10463000E6087093E70889E694E00E94693E6AE024
:1046400070E085EA9EE00E94AA3980E50E94E53686
:104650008823B1F00E947737AB01BC014093E80892
:104660005093E9086093EA087093EB088CE494E0B7
:104670000E94693E6AE070E085EA9EE00E94AA39E5
:1046800082E50E94E5368823B1F00E947737AB01BE
:10469000BC014093EC085093ED086093EE087093D2
:1046A000EF088DE294E00E94693E6AE070E085EADE
:1046B0009EE00E94AA3984E50E94E536882309F429
:1046C00001C70E947737AB01BC014093E4085093C7
:1046D000E5086093E6087093E7088FE094E00E9495
:1046E000693E6AE070E085EA9EE00E94AA39EAC667
:1046F00083E50E94E536882351F00E947737609366
:1047000008097093090980930A0990930B0984E5BD
:104710000E94E536882351F00E94773760930409A0
:1047200070930509809306099093070982E40E941B
:10473000E536882399F08091C2039091C3034AE043
:1047400050E060E070E001960E946C926093000976
:1047500070930109809302099093030988E50E94F0
:10476000E536882351F00E9477376093D408709320
:10477000D5088093D6089093D70889E50E94E5363E
:10478000882351F00E9477376093D8087093D90836
:104790008093DA089093DB088AE50E94E536882347
:1047A00051F00E9477376093DC087093DD088093A6
:1047B000DE089093DF0885E40E94E536882309F43B
:1047C00081C60E9477376093E0087093E108809378
:1047D000E2089093E30876C60F5F1F4FB4E0CB0E5C
:1047E000D11CE4E0EE0EF11C0330110509F44DC0BC
:1047F000D5018D915D010E94E536882369F30E9401
:1048000077372B013C01F7012081318142815381AF
:104810000E94758C9B01AC01D6016D917D918D91AB
:104820009C910E94768CF6016083718382839383CE
:10483000D7014D925D926D927C921397C8010E94B0
:104840004E39CACF2196EEADFFAD2197EF50F24120
:104850002996FFAFEEAF29972196AEADBFAD219758
:104860008D912196BFAFAEAF219781112EC5F4E097
:104870002F0E311C0C5F1F4F2BAD3CAD2C5F3F4FFB
:104880003CAF2BAF0C301105E9F60E948E380E9428
:10489000B13918C6ECE9FAE164918F010F5F1F4F3F
:1048A000662349F0062E000C770B85EA9EE00E94F5
:1048B000AA39F801F1CF83E50E94E536882321F07B
:1048C0000E94273780930502E9EBF4E064918F01A1
:1048D0000F5F1F4F662349F0062E000C770B85EA09
:1048E0009EE00E94AA39F801F1CF80910502811162
:1048F00003C0E5EBF4E002C0E1EBF4E064918F016A
:104900000F5F1F4F662349F0062E000C770B85EAD8
:104910009EE00E94AA39F801F1CFE9EAF4E064913F
:104920008F010F5F1F4F662349F0062E000C770B97
:1049300085EA9EE00E94AA39F801F1CF4091261243
:1049400050912712609128127091291287EA94E001
:104950000E94693E40912A1250912B1260912C12B4
:1049600070912D1284EA94E00E94693E40912E12CB
:1049700050912F12609130127091311281EA94E0BF
:104980000E94693EE9E9F4E064918F010F5F1F4FD7
:10499000662349F0062E000C770B85EA9EE00E9404
:1049A000AA39F801F1CF409144025091450260913B
:1049B00046027091470287E994E00E94693E409167
:1049C00048025091490260914A0270914B0284E979
:1049D00094E00E94693E40914C0250914D026091DA
:1049E0004E0270914F0281E994E00E94693E6AE0B4
:1049F00070E085EA9EE00E94AA3964C583E50E94C2
:104A0000E536882309F45EC50E945F37909307025C
:104A10008093060257C58DED90E00E94CC3E811137
:104A200051C583E50E94E536882309F44BC5009102
:104A3000C40310E00E945F37000F111FF801E35D0F
:104A4000FD4F918380833EC580E50E94E536882333
:104A500009F438C50E945F378C0183E50E94E53672
:104A6000882321F00E945F377C0103C0EE24EA9482
:104A7000FE2CC7010196039708F024C517FD22C537
:104A8000EAE5F2E0C8019927219131912817390709
:104A900009F418C522E0EA3AF207B1F72FC785E416
:104AA0000E94E536811110C080E50E94E53688231A
:104AB00099F00E94773760932102709322028093CD
:104AC00023029093240208C00E945F37181619062B
:104AD0005CF7EEE4F0E176C089E40E94E5368823D5
:104AE00081F00E9477372CE933E549E45EE30E94C8
:104AF0007D9460931D0270931E0280931F02909319
:104B0000200284E40E94E536882381F00E947737F2
:104B10002CE933E549E45EE30E94628D609325024F
:104B2000709326028093270290932802ECE9FAE121
:104B300064918F010F5F1F4F662349F0062E000C12
:104B4000770B85EA9EE00E94AA39F801F1CF4091E7
:104B5000210250912202609123027091240281ED82
:104B600094E00E94693E2CE933E549E45EE36091FC
:104B70001D0270911E0280911F02909120020E94DE
:104B8000628DAB01BC018DEC94E00E94473E2CE9A4
:104B900033E549E45EE3609125027091260280913D
:104BA0002702909128020E947D94AB01BC0189EC00
:104BB00094E00E94473E6AE070E085EA9EE00E9431
:104BC000AA3980C464918F010F5F1F4F662349F09B
:104BD000062E000C770B85EA9EE00E94AA39F801A8
:104BE000F1CF67E273E085EA9EE00E94D3406AE07D
:104BF00070E085EA9EE00E94AA3964C483E50E94C1
:104C0000E536082F8823A1F00E94773760932902A8
:104C100070932A0280932B0290932C0211E020E0E3
:104C200030E0A9010E941894811110E01093D3087C
:104C300080E50E94E536182F8823A9F020E030E0B7
:104C4000A9016091290270912A0280912B02909112
:104C50002C020E941894882319F00E942737182FDD
:104C60001093D3082FC401112DC4ECE9FAE164912B
:104C70008F010F5F1F4F662349F0062E000C770B44
:104C800085EA9EE00E94AA39F801F1CF8091D3080D
:104C9000811103C063E273E002C060E273E08AEE58
:104CA00094E00E94133F20E030E040E05FE3609139
:104CB000290270912A0280912B0290912C020E946D
:104CC000768C0E94D38D89ED94E00E94AD3EE5ED97
:104CD000F4E064918F010F5F1F4F662309F4F2C364
:104CE000062E000C770B85EA9EE00E94AA39F80197
:104CF000F0CF85E40E94E536882321F00E945F37DB
:104D00007C0102C0E12CF12C83E40E94E53688236B
:104D100049F00E945F37CB57DF4F99838883C5588E
:104D2000D04008C045E050E0CB57DF4F598348835F
:104D3000C558D04085E50E94E536882341F00E94A1
:104D40002737C957DF4F8883C758D04005C0C95798
:104D5000DF4F1882C758D04083E50E94E53688238C
:104D600079F00E94773728966FAF289724967FAF07
:104D700024972C968FAF2C9760969FAF609710C0AA
:104D800028961FAE289724961FAE2497F7FC0EC0D6
:104D900056E12C965FAF2C9783E460968FAF6097B7
:104DA000E114F10459F41092C40308C09CE82C9655
:104DB0009FAF2C97A2E46096AFAF60971092D70395
:104DC0001092D6030E9430604B015C01EF2869F01D
:104DD00068E373E085EA9EE00E94D3406AE070E0F9
:104DE00085EA9EE00E94AA396DC361E673E085EA18
:104DF0009EE00E94D3406AE070E085EA9EE00E9457
:104E0000AA390E94D5608FE78093760881E080936D
:104E10000802C358DF4F88829982AA82BB82CD578D
:104E2000D040C857DF4F88829982AA82BB82C85877
:104E3000D04068961FAE6897B0E46C96BFAF6C9791
:104E4000ECE1A096EFAFA097F6E4A496FFAFA4978D
:104E5000A8961FAEA897AC961FAEAC97E0961FAE73
:104E6000E097E4961FAEE497EC961CAE1DAE1EAE26
:104E70001FAEEC97E8961CAE1DAE1EAE1FAEE897B7
:104E8000C12CD12C7601FFE74F2E512C612C712CB7
:104E90002FE730E040E050E023962CAF3DAF4EAF1F
:104EA0005FAF2397CF57DF4F188219821A821B8278
:104EB000C158D04031E0ED963FAFED9765961FAEFB
:104EC0001EAE659710E000E0312C212C8091080285
:104ED000882309F4F3C10E9430606BAF7CAF8DAFC3
:104EE0009EAF80916E08882309F4DBC00E94946411
:104EF0001091040E0091050E3090060E2090070EC2
:104F0000212F302F432D522DA8966FADA897AC9628
:104F10007FADAC97E0968FADE097E4969FADE497B8
:104F20000E94189487FF0CC0A8961FAFA897AC9654
:104F30000FAFAC97E0963FAEE097E4962FAEE497C4
:104F4000212F302F432D522D68966FAD68976C96A8
:104F50007FAD6C97A0968FADA097A4969FADA497B8
:104F60000E94BE8E181664F468961FAF68976C9600
:104F70000FAF6C97A0963FAEA097A4962FAEA497C4
:104F8000ED964FADED9728962FAD289724963FAD1F
:104F90002497442309F45FC02C964FAD2C9760965C
:104FA0005FAD6097612F702F832D922D0E94BE8E72
:104FB00018160CF076C04BAD5CAD6DAD7EAD4819EA
:104FC00059096A097B09DB01CA0188589341A10983
:104FD000B109B7FD66C023968CAD9DADAEADBFAD3A
:104FE000239784199509A609B709B595A7959795AB
:104FF000879580937608CF57DF4F488359836A831C
:105000007B83C158D04028965FAD2897A8965FAFA4
:10501000A89724968FAD2497AC968FAFAC972C961B
:105020009FAD2C97E0969FAFE0976096AFAD6097ED
:10503000E496AFAFE4972BAD3CAD4DAD5EADC3583C
:10504000DF4F288339834A835B83CD57D040ED9669
:105050001FAEED9726C02C964FAD2C9760965FAD96
:105060006097612F702F832D922D0E94189487FFD7
:1050700018C08BAD9CADADADBEADC358DF4F288120
:1050800039814A815B81CD57D040821B930BA40BA1
:10509000B50BAC01BD01485853416109710977FF57
:1050A00097C220E030E040EA51E428966FAD28979F
:1050B00024967FAD24972C968FAD2C9760969FAD4C
:1050C00060970E94768C9B01AC01612F702F832D1D
:1050D000922D0E94BE8E18168CF407EB15E0F80195
:1050E0006491662309F4EEC10F5F1F4F062E000C7A
:1050F000770B85EA9EE00E94AA39F1CF80E398EF12
:10510000AFEFBFEFC857DF4F288139814A815B81FC
:10511000C858D040821B930BA40BB50B2BAD3CADF4
:105120004DAD5EAD820F931FA41FB51FB7FD14C018
:105130000E94983A6AE070E085EA9EE00E94AA39EF
:105140008BAD9CADADADBEADC857DF4F88839983A5
:10515000AA83BB83C858D0408BAD9CADADADBEAD6E
:10516000880F991FAA1FBB1FC358DF4F28813981A1
:105170004A815B81CD57D040821B930BA40BB50BAA
:1051800088199909AA09BB0981389F44A241B10530
:1051900088F009E915E0F8016491662309F492C1E9
:1051A0000F5F1F4F062E000C770B85EA9EE00E94D2
:1051B000AA39F1CF65962EAD3FAD6597CB57DF4F3E
:1051C00048815981C558D040421753070CF07ECE14
:1051D000ECE3F5E064918F010F5F1F4F662349F008
:1051E000062E000C770B85EA9EE00E94AA39F80192
:1051F000F1CFB701A60187E295E00E94693E6AE01F
:1052000070E085EA9EE00E94AA39E8964CAD5DAD5B
:105210006EAD7FADE89782E195E00E94693E6AE05D
:1052200070E085EA9EE00E94AA39EC964CAD5DAD37
:105230006EAD7FADEC978DEF94E00E94693E6AE021
:1052400070E085EA9EE00E94AA39C957DF4F588175
:10525000C758D040552309F435C1C0922102D092DD
:105260002202E0922302F09224022CE933E549E481
:105270005EE3E8966CAD7DAD8EAD9FADE8970E9484
:105280007D9460931D0270931E0280931F02909381
:1052900020022CE933E549E45EE3EC966CAD7DAD8C
:1052A0008EAD9FADEC970E94628D60932502709346
:1052B0002602809327029093280204C1809108025D
:1052C000811100C10E94D560FDC0F801EC5BFD4F6B
:1052D0002081318142815381F801EA5DFD4E608178
:1052E0007181828193810E94768C20E030E040E0E1
:1052F0005FE30E947D949B01AC01F10160817181AB
:10530000828193810E94BE8E181634F4C8018153A5
:10531000954E0E94483903C060E070E0CB01D10196
:105320004D905D906D907C90EBADFCADC080D180D8
:10533000E280F380A70196010E94768CF801ED5F70
:10534000FD4E20813181428153810E94768C9B01E8
:10535000AC01C301B2010E94758C4B015C0120E0DD
:1053600030E040EA51EC0E94BE8E18167CF520E039
:1053700030E040EA51E4C501B4010E94189487FF6F
:1053800025C0A5019401C701B6010E94758C4B018F
:105390005C01A70196010E94758C9B01AC01C301C1
:1053A000B2010E94768CD1016D937D938D939C9375
:1053B0001397EBADFCAD80829182A282B3822996D5
:1053C0008EAD9FAD29970E944E3951CAEEE4F0E1AF
:1053D00064918F010F5F1F4F662349F0062E000C6A
:1053E000770B85EA9EE00E94AA39F801F1CFEBE243
:1053F000F6E064918F010F5F1F4F662309F462C0CE
:10540000062E000C770B85EA9EE00E94AA39F8016F
:10541000F0CF0E945B4B56C00E94834953C00E944C
:10542000374850C083E50E94E536882321F00E946A
:10543000273791E089270E94B34444C081E08093DC
:10544000190283E50E94E536882309F454C20E94BC
:105450002737811137C04FC22093C503ECE9FAE129
:1054600064918F010F5F1F4F662349F0062E000CD9
:10547000770B85EA9EE00E94AA39F801F1CF60918E
:10548000C50370E089E496E00E94AD3E6AE070E0FA
:1054900085EA9EE00E94AA3915C080E014C061E050
:1054A0008D2D0E94F45E6E2D8D2D0E94A141B701BD
:1054B0008D2D0E94305F0530110521F4F0920D0909
:1054C000E0920C0981E01092D7031092D60381116B
:1054D00025C00C947A0E64918F010F5F1F4F6623D5
:1054E00049F0062E000C770B85EA9EE00E94AA394F
:1054F000F801F1CF6091D3037091D4038BE596E06E
:105500000E94133F62E270E085EA9EE00E94AA39A1
:105510006AE070E085EA9EE00E94AA390E947185E7
:1055200014C20E946C37AB01BC014093F41150933C
:10553000F5116093F6117093F71183E491E10E94E5
:10554000B84FC0CF0E946C37AB01BC014093F4113F
:105550005093F5116093F6117093F71183E491E184
:105560000E94B84F0C94141B0E94245E0C94E11D01
:105570000E94946788E50E94E536882319F08E9A88
:1055800010926A0489E50E94E536882351F09FB79E
:10559000F894809108018260809308019FBF109267
:1055A0006B048AE50E94E536882351F09FB7F89492
:1055B000809108018061809308019FBF10926C0464
:1055C00085E40E94E536882309F47CCF8B9A7ACF54
:1055D00065964EAD5FAD6597141615060CF051C17A
:1055E000CF57DF4F88809980AA80BB80C158D040B8
:1055F000880E991EAA1EBB1ECF57DF4F2881398106
:105600004A815B81C158D040281B390B4A0B5B0B88
:10561000CA01B901A30192010E94E497A501940176
:105620000E94498C23964CAC5DAC6EAC7FAC23974A
:10563000420E531E641E751E34E14316510461046C
:1056400071041CF14CEE44165104610471043CF4E5
:1056500050E845165104610471043CF105C05BEE4D
:10566000452E512C612C712C23964CAE5DAE6EAE46
:105670007FAE23978EEF90E0A0E0B0E0841995090B
:10568000A609B7092C013D0116C024E130E040E035
:1056900050E023962CAF3DAF4EAF5FAF239744E170
:1056A000442E512C612C712C06C023964CAE5DAE5D
:1056B0006EAE7FAE239723964CAD5DAD6EAD7FADE4
:1056C000239783E296E00E948B3EB301A2018EE114
:1056D00096E00E948B3E68964FAD68976C965FADE2
:1056E0006C97A0966FADA097A4967FADA49787E125
:1056F00096E00E94693EA8964FADA897AC965FAD24
:10570000AC97E0966FADE097E4967FADE49780E1CB
:1057100096E00E94693E65964EAD5FAD6597433059
:1057200051050CF4AEC0C301B2010E941E9420E0EA
:1057300030E040E850E40E947D946B017C01689663
:105740002FAD68976C963FAD6C97A0964FADA09724
:10575000A4965FADA497A8966FADA897AC967FADC1
:10576000AC97E0968FADE097E4969FADE4970E94EA
:10577000758C2BED3FE049E450E40E947D9420E0DD
:1057800030E040E05FE30E947D949B01AC01C701E3
:10579000B6010E94628D6B017C01C501B4010E94BB
:1057A0001E942FE632E143E85AE30E947D944B01B8
:1057B0005C01B701A6018AE096E00E94693EB5014E
:1057C000A40184E096E00E94693E2AE939E949E1B2
:1057D0005FE3C701B6010E947D946B017C019B01D0
:1057E000AC010E94768CA50194010E94628DE8961E
:1057F0006CAF7DAF8EAF9FAFE897A5019401C70155
:10580000B6010E947D9420E030E040E05EE30E941B
:105810007D94EC966CAF7DAF8EAF9FAFEC97E4EFCD
:10582000F5E064915F015FEFA51AB50A662349F0C0
:10583000062E000C770B85EA9EE00E94AA39F5013E
:10584000F0CFB701A6018EEE95E00E94693EE89682
:105850004CAD5DAD6EAD7FADE89788EE95E00E94F2
:10586000693EEC964CAD5DAD6EAD7FADEC9782EED2
:1058700095E00E94693E6AE070E085EA9EE00E9441
:10588000AA3923968CAD9DADAEADBFAD2397840DE7
:10589000951DA61DB71DB595A795979587958093DE
:1058A000760865968EAD9FAD6597019665969FAF1C
:1058B0008EAF659728969FAD289768969FAF68979B
:1058C0002496AFAD24976C96AFAF6C972C96BFAD76
:1058D0002C97A096BFAFA0976096EFAD6097A49667
:1058E000EFAFA4978BAC9CACADACBEACF1E0ED9649
:1058F000FFAFED97D6CB0E949885E4CD0E949467C8
:10590000D02E60E0802F0E94F45E3FEFE316F30696
:1059100059F4802F0E94784131E020E0892B09F072
:1059200030E0032F122F05C0EA94EF2859F000E071
:1059300010E08D2D0E9478418017910709F4C2CDA7
:105940001ED0F7CF01E010E0F4CFC157DF4F0FB604
:10595000F894DEBF0FBECDBFDF91CF911F910F91A5
:10596000FF90EF90DF90CF90BF90AF909F908F907F
:105970007F906F905F904F903F902F9008952F925F
:105980003F924F925F926F927F928F929F92AF92CF
:10599000BF92CF92DF92EF92FF920F931F93CF931C
:1059A000DF93CDB7DEB76F970FB6F894DEBF0FBEAB
:1059B000CDBF88E09EE00E94943F181619060CF0B7
:1059C00043C688E09EE00E94723F8A35910509F047
:1059D0003BC688E09EE00E94943F18161906CCF75B
:1059E00088E09EE00E94723F853A910509F02CC63E
:1059F00088E09EE00E94943F0397D4F388E09EE005
:105A00000E94723F88E09EE00E94723F88E09EE024
:105A10000E94723F049709F017C688E09EE00E943A
:105A2000943F0497D4F388E09EE00E94723F8C017B
:105A300088E09EE00E94723F88E09EE00E94723FF4
:105A400088E09EE00E94723FF82E980133272034B0
:105A5000310509F4E9C30CF03FC02533310509F4E1
:105A6000D2C1DCF42233310509F4D8C05CF4213012
:105A7000310509F4F9C42C31310509F0E5C58EE68C
:105A800096E050C52333310509F473C12433310541
:105A900009F0DAC50E94D560D7C52C33310509F469
:105AA000E4C14CF42633310509F4C1C12733310573
:105AB00009F4D2C1C9C52E33310509F4E7C10CF090
:105AC0009DC282ED90E09093030E8093020E0E949F
:105AD0007D7C86E490E0D3C12834310509F408C404
